HEADERA065202509102025091000669
DATOS   A065R02222    S1778122220000000013370775A308C12821                   000006100000000000000000000000000000000000000000000000000100000000017082800900000002025091200000000000945482109                                                   25091040000000000000000900000  1000PAYWAVE/VISA00000000000000000000000000000000322519                                                                                                                                                                                                              VISA                                                            00000000000            01
DATOS   A065R02222    S1778122220000000013370698A308C12821                   0000045000000000000000000000000000000000000000000000000001000000000170633009000000020250912000000000002070518410                                                  25091040000000000000000900000  1000PAYWAVE/VISA00000000000000000000000000000000322207                                                                                                                                                                                                              VISA                                                            00000000000            01
DATOS   A065R02222    S1778122220000000013370462A308C12821                   0000124000000000000000000000000000000000000000000000000001000000000170010009000000020250912000000000001599642805                                                  25091040000000000000000900000  1000PAYWAVE/VISA00000000000000000000000000000000304301                                                                                                                                                                                                              VISA                                                            00000000000            01
DATOS   A065R02222    S1778122220000000013368855A308C12821                   0000048500000000000000000000000000000000000000000000000001000000000161509009000000020250912000000000001438358865                                                  25091040000000000000000900000  1000PAYWAVE/VISA00000000000000000000000000000000316357                                                                                                                                                                                                              VISA                                                            00000000000            01
DATOS   A065R02222    S1778122220000000013366928A308C12821                   0000034500000000000000000000000000000000000000000000000001000000000151214009000000020250912000000000001689727923                                                  25091040000000000000000900000  1000PAYWAVE/VISA00000000000000000000000000000000792142                                                                                                                                                                                                              VISA                                                            00000000000            01
DATOS   A065R02222    S1778122220000000013366796A308C12821                   000022800000000000000000000000000000000000000000000000000100000000015084800900000002025100600000000000270672161                                                   25091040000000000000000600000  1Tarjetahabiente00000000000000000000000000000000V8UPRZ                                                                                                                                                                                                        MASTERCARD                                                            00000000000            01
DATOS   A065R02222    S1778122220000000013363250A308C12821                   000002550000000000000000000000000000000000000000000000000100000000013293500900000002025091200000000000905855056                                                   25091040000000000000000900000  1Tarjetahabiente00000000000000000000000000000000166598                                                                                                                                                                                                        MASTERCARD                                                            00000000000            01
DATOS   A065R02222    S1778122220000000013362627A308C12821                   000009450000000000000000000000000000000000000000000000000100000000013144100900000002025091200000000000791972099                                                   25091040000000000000000900000  1000PAYWAVE/VISA00000000000000000000000000000000674964                                                                                                                                                                                                              VISA                                                            00000000000            01
DATOS   A065R02222    S1778122220000000013348936A308C12821                   0000083000000000000000000000000000000000000000000000000001000000000083758009000000020250912000000000002004926546                                                  25091040000000000000000900000  1000PAYWAVE/VISA00000000000000000000000000000000338135                                                                                                                                                                                                              VISA                                                            00000000000            01
DATOS   A065R02222    S1778122220000000013348521A308C12821                   000005100000000000000000000000000000000000000000000000000100000000008211500900000002025091200000000000537883496                                                   25091040000000000000000900000  1000PAYWAVE/VISA00000000000000000000000000000000243963                                                                                                                                                                                                              VISA                                                            00000000000            01
DATOS   A065R02222    S1778122220000000013327924A308C12821                   000005100000000000000000000000000000000000000000000000000100000000006455800900000002025091200000000000783104664                                                   25091040000000000000000900000  1000PAYWAVE/VISA00000000000000000000000000000000335262                                                                                                                                                                                                              VISA                                                            00000000000            01
DATOS   A065R02222    S1778322220000000013384251A308C12823                   0000270137400000000000000000000000000000000000000000000001000000000225130009000000020250912000000000001293621669                                                  25091040000000000000000900000  1000PAYWAVE/VISA00000000000000000000000000000000390877                                                                                                                                                                                                              VISA                                                            00000000000            01
DATOS   A065R02222    S1778322220000000013382333A308C12823                   0000200290500000000000000000000000000000000000000000000001000000000212444009000000020250912000000000001785861044                                                  25091040000000000000000900000  1000PAYWAVE/VISA00000000000000000000000000000000287601                                                                                                                                                                                                              VISA                                                            00000000000            01
DATOS   A065R02222    S1778322220000000013380620A308C12823                   000003203920000000000000000000000000000000000000000000000100000000020311400900000002025091200000000000721607480                                                   25091040000000000000000900000  1000PAYWAVE/VISA00000000000000000000000000000000376542                                                                                                                                                                                                              VISA                                                            00000000000            01
DATOS   A065R02222    S1778322220000000013376910A308C12823                   000002644620000000000000000000000000000000000000000000000100000000019131400900000002025100600000000000923824571                                                   25091040000000000000000600000  1Tarjetahabiente00000000000000000000000000000000986996                                                                                                                                                                                                        MASTERCARD                                                            00000000000            01
DATOS   A065R02222    S1778322220000000013376347A308C12823                   0001195062200000000000000000000000000000000000000000000001000000000190156009000000020251006000000000001536334863                                                  25091040000000000000000800000  1000PAYWAVE/VISA00000000000000000000000000000000020029                                                                                                                                                                                                              VISA                                                            00000000000            01
DATOS   A065R02222    S1778322220000000013372880A308C12823                   0001134381000000000000000000000000000000000000000000000001000000000175551009000000020251006000000000001733237402                                                  25091040000000000000000800000  1000PAYWAVE/VISA00000000000000000000000000000000007476                                                                                                                                                                                                              VISA                                                            00000000000            01
DATOS   A065R02222    S1778322220000000013372111A308C12823                   000050033630000000000000000000000000000000000000000000000100000000017393200900000002025091200000000000788561133                                                   25091040000000000000000900000  1000PAYWAVE/VISA00000000000000000000000000000000234012                                                                                                                                                                                                              VISA                                                            00000000000            01
DATOS   A065R02222    S1778322220000000013368941A308C12823                   0000100205400000000000000000000000000000000000000000000001000000000161734009000000020251006000000000001120291161                                                  25091040000000000000000800000  1000PAYWAVE/VISA00000000000000000000000000000000007754                                                                                                                                                                                                              VISA                                                            00000000000            01
DATOS   A065R02222    S1778322220000000013367255A308C12823                   000005013030000000000000000000000000000000000000000000000100000000015222400900000002025091200000000000146468063                                                   25091040000000000000000900000  1Tarjetahabiente00000000000000000000000000000000276727                                                                                                                                                                                                        MASTERCARD                                                            00000000000            01
DATOS   A065R02222    S1778322220000000013366336A308C12823                   000030003610000000000000000000000000000000000000000000000100000000014543800900000002025091200000000000348262544                                                   25091040000000000000000900000  1000PAYWAVE/VISA00000000000000000000000000000000310532                                                                                                                                                                                                              VISA                                                            00000000000            01
DATOS   A065R02222    S1778322220000000013366147A308C12823                   0000151371400000000000000000000000000000000000000000000001000000000144856009000000020250912000000000001483103122                                                  25091040000000000000000900000  1000PAYWAVE/VISA00000000000000000000000000000000310124                                                                                                                                                                                                              VISA                                                            00000000000            01
DATOS   A065R02222    S1778322220000000013363968A308C12823                   0000140185300000000000000000000000000000000000000000000001000000000134625009000000020251006000000000001864861106                                                  25091040000000000000000800000  10BELLANI R/ALFI00000000000000000000000000000000007873                                                                                                                                                                                                              VISA                                                            00000000000            01
DATOS   A065R02222    S1778322220000000013362814A308C12823                   0000170050500000000000000000000000000000000000000000000001000000000131854009000000020251006000000000001266446010                                                  25091040000000000000000600000  1000PAYWAVE/VISA00000000000000000000000000000000612073                                                                                                                                                                                                              VISA                                                            00000000000            01
DATOS   A065R02222    S1778322220000000013361815A308C12823                   0000300036000000000000000000000000000000000000000000000001000000000125639009000000020251006000000000001432482020                                                  25091040000000000000000800000  1000PAYWAVE/VISA00000000000000000000000000000000007407                                                                                                                                                                                                              VISA                                                            00000000000            01
DATOS   A065R02222    S1778322220000000013360270A308C12823                   000050009140000000000000000000000000000000000000000000000100000000012240900900000002025091200000000000277828719                                                   25091040000000000000000900000  1000PAYWAVE/VISA00000000000000000000000000000000595983                                                                                                                                                                                                              VISA                                                            00000000000            01
DATOS   A065R02222    S1778322220000000013353252A308C12823                   0000200203600000000000000000000000000000000000000000000001000000000101847009000000020250912000000000001672552830                                                  25091040000000000000000900000  1000PAYWAVE/VISA00000000000000000000000000000000796804                                                                                                                                                                                                              VISA                                                            00000000000            01
DATOS   A065R02222    S1778322220000000013353112A308C12823                   0000200203600000000000000000000000000000000000000000000001000000000101610009000000020250912000000000001063757661                                                  25091040000000000000000900000  1000PAYWAVE/VISA00000000000000000000000000000000502972                                                                                                                                                                                                              VISA                                                            00000000000            01
DATOS   A065R02222    S1778322220000000013352504A308C12823                   0000360040500000000000000000000000000000000000000000000001000000000100353009000000020250912000000000002012698929                                                  25091040000000000000000900000  1000PAYWAVE/VISA00000000000000000000000000000000410072                                                                                                                                                                                                              VISA                                                            00000000000            01
DATOS   A065R02222    S1778322220000000013351654A308C12823                   000030002580000000000000000000000000000000000000000000000100000000009471600900000002025091200000000000617648904                                                   25091040000000000000000900000  1000PAYWAVE/VISA00000000000000000000000000000000907804                                                                                                                                                                                                              VISA                                                            00000000000            01
DATOS   A065R02222    S1778322220000000013351293A308C12823                   000088841920000000000000000000000000000000000000000000000100000000009395300900000002025100600000000000751334366                                                   25091040000000000000000600000  1Tarjetahabiente000000000000000000000000000000009MHY1Z                                                                                                                                                                                                        MASTERCARD                                                            00000000000            01
DATOS   A065R02222    S1778322220000000013348289A308C12823                   000012028510000000000000000000000000000000000000000000000100000000008115100900000002025091200000000000773639403                                                   25091040000000000000000900000  1000PAYWAVE/VISA00000000000000000000000000000000243345                                                                                                                                                                                                              VISA                                                            00000000000            01
DATOS   A065R02222    S1778322220000000013348189A308C12823                   000001009510000000000000000000000000000000000000000000000100000000008063700900000002025091200000000000337329385                                                   25091040000000000000000900000  1000PAYWAVE/VISA00000000000000000000000000000000243033                                                                                                                                                                                                              VISA                                                            00000000000            01
DATOS   A065R02222    S1778322220000000013348063A308C12823                   000030062610000000000000000000000000000000000000000000000100000000007581500900000002025100600000000000115132205                                                   25091040000000000000000600000  1Tarjetahabiente0000000000000000000000000000000004G4FZ                                                                                                                                                                                                        MASTERCARD                                                            00000000000            01
DATOS   A065R02222    S1778322220000000013347672A308C12823                   000004735450000000000000000000000000000000000000000000000100000000007283900900000002025100600000000000649945622                                                   25091040000000000000000600000  1Tarjetahabiente00000000000000000000000000000000PNVGWZ                                                                                                                                                                                                        MASTERCARD                                                            00000000000            01
DATOS   A065R02222    S1778322220000000013347561A308C12823                   0000500437200000000000000000000000000000000000000000000001000000000071326009000000020250912000000000001201358361                                                  25091040000000000000000900000  1000PAYWAVE/VISA00000000000000000000000000000000240593                                                                                                                                                                                                              VISA                                                            00000000000            01
DATOS   A065R02222    S1778322220000000013327948A308C12823                   0000200148300000000000000000000000000000000000000000000001000000000065005009000000020251006000000000001732260168                                                  25091040000000000000000800000  10LIGOTTI/MARIA 00000000000000000000000000000000008082                                                                                                                                                                                                              VISA                                                            00000000000            01
DATOS   A065R02222    S2090722220000000013365404A322C15474                   0000000200000000000000000000000000000000000000000000000009000000000142802008000000020250910000000000009OC19C3F8B444AF9B00002839723000009290980ET9A065TOC3F52903F2F25091090000000000000000200000  10000202576950350000000000000000PDX4OGNY1QOV3EOQ20L6EY                                                                                                                                                                                                                                                                              00000000000            00
TRAILER00000038000009044838200000038
