HEADERA065202508182025081800652
DATOS   A065R02222    S1636322220000000012609614A308C11649                   000155990000000000000000000000000000000000000000000000000100000000010291100900000002025091100000000000849535903                                                   25081840000000000000000800000  1000PAYWAVE/VISA00000000000000000000000000000000803467                                                                                                                                                                                                              VISA                                                            00000000000            01
DATOS   A065R02222    S1638322220000000012619519A308C11668                   0002909900000000000000000000000000000000000000000000000001000000000164324009000000020250820000000000001983947609                                                  25081840000000000000000900000  1000PAYWAVE/VISA00000000000000000000000000000000029388                                                                                                                                                                                                              VISA                                                            00000000000            01
DATOS   A065R02222    S1638322220000000012607439A308C11668                   0001309900000000000000000000000000000000000000000000000001000000000091312009000000020250820000000000001797864173                                                  25081840000000000000000900000  1000PAYWAVE/VISA00000000000000000000000000000000987367                                                                                                                                                                                                              VISA                                                            00000000000            01
DATOS   A065R02222    S1638422220000000012609702A308C11669                   0001310000000000000000000000000000000000000000000000000001000000000103131009000000020250911000000000002035936274                                                  25081840000000000000000800000  10SEVILLA/FRANCO00000000000000000000000000000000006720                                                                                                                                                                                                              VISA                                                            00000000000            01
DATOS   A065R02222    S1638722220000000012621231A308C11672                   000185990000000000000000000000000000000000000000000000000100000000017523300900000002025090100000000000618087286                                                   25081840000000000000000100000  30LERENA/GERMAN 00000000000000000000000000000000007211                                                                                                                                                                                                              VISA                                                            00000000000            00
DATOS   A065R02222    S1638722220000000012615351A308C11672                   0001319900000000000000000000000000000000000000000000000001000000000131641009000000020250901000000000001461456916                                                  25081840000000000000000100000  60NINE/OSCAR AND00000000000000000000000000000000006788                                                                                                                                                                                                              VISA                                                            00000000000            00
DATOS   A065R02222    S1638722220000000012615217A308C11672                   000131990000000000000000000000000000000000000000000000000100000000013120100900000002025090100000000000218957236                                                   25081840000000000000000100000  3Tarjetahabiente00000000000000000000000000000000632892                                                                                                                                                                                                        MASTERCARD                                                            00000000000            00
DATOS   A065R02222    S1638722220000000012613582A308C11672                   0001319900000000000000000000000000000000000000000000000001000000000121938009000000020250901000000000001584066559                                                  25081840000000000000000100000  3Tarjetahabiente00000000000000000000000000000000686761                                                                                                                                                                                                        MASTERCARD                                                            00000000000            00
DATOS   A065R02222    S1638722220000000012610065A308C11672                   000194000000000000000000000000000000000000000000000000000100000000010423700900000002025090100000000000305738122                                                   25081840000000000000000100000  60MORER/GUSTAVO 00000000000000000000000000000000006645                                                                                                                                                                                                              VISA                                                            00000000000            00
DATOS   A065R02222    S1638722220000000012607560A308C11672                   0001499900000000000000000000000000000000000000000000000001000000000091853009000000020250901000000000001647570829                                                  25081840000000000000000100000  30BERROTARAN/JUL00000000000000000000000000000000016930                                                                                                                                                                                                              VISA                                                            00000000000            00
DATOS   A065R02222    S1638722220000000012607382A308C11672                   000137990000000000000000000000000000000000000000000000000100000000009101100900000002025091100000000000949500398                                                   25081840000000000000000800000  1000PAYWAVE/VISA00000000000000000000000000000000007812                                                                                                                                                                                                              VISA                                                            00000000000            00
DATOS   A065R02222    S1638722220000000012606835A308C11672                   0001555900000000000000000000000000000000000000000000000001000000000083718009000000020250911000000000001818648733                                                  25081840000000000000000800000  1000PAYWAVE/VISA00000000000000000000000000000000006857                                                                                                                                                                                                              VISA                                                            00000000000            00
DATOS   A065R02222    S1638722220000000012606766A308C11672                   0001379900000000000000000000000000000000000000000000000001000000000083130009000000020250901000000000001029542470                                                  25081840000000000000000100000  30GIAMBANCO/ENZO00000000000000000000000000000000006516                                                                                                                                                                                                              VISA                                                            00000000000            00
DATOS   A065R02222    S1778322220000000012623512A308C12823                   000010000410000000000000000000000000000000000000000000000100000000019162200900000002025082000000000000754983568                                                   25081840000000000000000900000  1000PAYWAVE/VISA00000000000000000000000000000000159004                                                                                                                                                                                                              VISA                                                            00000000000            01
DATOS   A065R02222    S1778322220000000012622725A308C12823                   000020036610000000000000000000000000000000000000000000000100000000018475700900000002025082000000000000355580427                                                   25081840000000000000000900000  1000PAYWAVE/VISA00000000000000000000000000000000731867                                                                                                                                                                                                              VISA                                                            00000000000            01
DATOS   A065R02222    S1778322220000000012620510A308C12823                   0000162726500000000000000000000000000000000000000000000001000000000172645009000000020250820000000000002058704123                                                  25081840000000000000000900000  1000PAYWAVE/VISA00000000000000000000000000000000053526                                                                                                                                                                                                              VISA                                                            00000000000            01
DATOS   A065R02222    S1778322220000000012613773A308C12823                   0000040689900000000000000000000000000000000000000000000001000000000122541009000000020250911000000000001999924929                                                  25081840000000000000000600000  1Tarjetahabiente00000000000000000000000000000000UK5ZPZ                                                                                                                                                                                                        MASTERCARD                                                            00000000000            01
DATOS   A065R02222    S1778322220000000012611558A308C12823                   000010017530000000000000000000000000000000000000000000000100000000011245900900000002025082000000000000146683182                                                   25081840000000000000000900000  1000PAYWAVE/VISA00000000000000000000000000000000638606                                                                                                                                                                                                              VISA                                                            00000000000            01
DATOS   A065R02222    S1778322220000000012610131A308C12823                   0000045251700000000000000000000000000000000000000000000001000000000104435009000000020250820000000000001421783202                                                  25081840000000000000000900000  1000PAYWAVE/VISA00000000000000000000000000000000282869                                                                                                                                                                                                              VISA                                                            00000000000            01
DATOS   A065R02222    S1778322220000000012609157A308C12823                   000005000000000000000000000000000000000000000000000000000100000000010143600900000002025082000000000000603081672                                                   25081840000000000000000900000  10            / 00000000000000000000000000000000696357                                                                                                                                                                                                              VISA                                                            00000000000            01
DATOS   A065R02222    S1778322220000000012608518A308C12823                   000005088120000000000000000000000000000000000000000000000100000000009533700900000002025082000000000000919198065                                                   25081840000000000000000900000  1000PAYWAVE/VISA00000000000000000000000000000000991905                                                                                                                                                                                                              VISA                                                            00000000000            01
DATOS   A065R02222    S1778322220000000012606849A308C12823                   0000160805800000000000000000000000000000000000000000000001000000000083816009000000020250820000000000001330680779                                                  25081840000000000000000900000  1000PAYWAVE/VISA00000000000000000000000000000000099219                                                                                                                                                                                                              VISA                                                            00000000000            01
DATOS   A065R02222    S1778322220000000012606359A308C12823                   0000120138800000000000000000000000000000000000000000000001000000000073915009000000020250820000000000001933837172                                                  25081840000000000000000900000  1000PAYWAVE/VISA00000000000000000000000000000000080337                                                                                                                                                                                                              VISA                                                            00000000000            01
TRAILER00000023000021695939400000023
