HEADERA065202508132025081300650
DATOS   A065R02222    S1638322220000000012498339A308C11668                   0002909900000000000000000000000000000000000000000000000001000000000112025009000000020250818000000000002041064060                                                  25081340000000000000000900000  10PASCOLINI/SILV00000000000000000000000000000000228314                                                                                                                                                                                                              VISA                                                            00000000000            01
DATOS   A065R02222    S1638422220000000012508371A308C11669                   000131990000000000000000000000000000000000000000000000000100000000017335300900000002025082800000000000934104212                                                   25081340000000000000000100000  60BRUNI/PABLO F 00000000000000000000000000000000011949                                                                                                                                                                                                              VISA                                                            00000000000            01
DATOS   A065R02222    S1638422220000000012505660A308C11669                   0001769900000000000000000000000000000000000000000000000001000000000153808009000000020250818000000000002035708596                                                  25081340000000000000000900000  1000PAYWAVE/VISA00000000000000000000000000000000902678                                                                                                                                                                                                              VISA                                                            00000000000            01
DATOS   A065R02222    S1638722220000000012506312A308C11672                   00014999000000000000000000000000000000000000000000000000010000000001609370090000000202508280000000000018908063                                                    25081340000000000000000100000  60FREIRE/ANDREA 00000000000000000000000000000000006917                                                                                                                                                                                                              VISA                                                            00000000000            00
DATOS   A065R02222    S1638722220000000012495129A308C11672                   0001559900000000000000000000000000000000000000000000000001000000000095449009000000020250909000000000001834197687                                                  25081340000000000000000800000  1000PAYWAVE/VISA00000000000000000000000000000000006250                                                                                                                                                                                                              VISA                                                            00000000000            00
DATOS   A065R02222    S1778122220000000012504688A322C12821                   0000138000000000000000000000000000000000000000000000000009000000000145032008000000020250813000000000009OC128F39AA076A9B00002280556000008764473ET9A065TOCFE0F22D4A925081390000000000000000200000  10000203408606090000000000000000Z4K6DVNOD7O4D3M495J8LQ                                                                                                                                                                                                                                                                              00000000000            01
DATOS   A065R02222    S1778122220000000012504640A322C12821                   0000091000000000000000000000000000000000000000000000000009000000000144847008000000020250813000000000009OC2FC69E5F2CEA9B00002280556000008764440ET9A065TOC122B4784D325081390000000000000000200000  10000202742162640000000000000000WGRXJE27G0EZE4JEN7MYQL                                                                                                                                                                                                                                                                              00000000000            01
DATOS   A065R02222    S1778122220000000012504499A322C12821                   0000047500000000000000000000000000000000000000000000000009000000000144208008000000020250813000000000009OC27D07A366B6A9B00002280556000008764344ET9A065TOC22DAD907B225081390000000000000000200000  10000204189663440000000000000000Z0KV879486GZRZEJ2PEYDX                                                                                                                                                                                                                                                                              00000000000            01
DATOS   A065R02222    S1778122220000000012504462A322C12821                   0000102600000000000000000000000000000000000000000000000009000000000144040008000000020250813000000000009OC07C0E7FA7AEA9B00002280556000008764311ET9A065TOC347A8A9E7425081390000000000000000200000  10000274239170540000000000000000ORD6LEN87JEL4YKG2M1Y30                                                                                                                                                                                                                                                                              00000000000            01
DATOS   A065R02222    S1778122220000000012504431A322C12821                   0000016000000000000000000000000000000000000000000001300029000000000143853008000000020250813000000000009OC086F3CF4CA6A9B00002280556000008764289ET9A065TOCC88AF8AC3F25081390000000000000000200000  100002038941038200000000000000000V1JXON1D6KO57X19Z64EL                                                                                                                                                                                                                                                                              00000000000            01
DATOS   A065R02222    S1778122220000000012503886A322C12821                   0000040000000000000000000000000000000000000000000000000009000000000141243008000000020250813000000000009OC1E3F63DAF7EA9B00002280556000008763934ET9A065TOCA1E85FC5A825081390000000000000000200000  1000023324706119000000000000000067REZ8NPWOXZDG5494KVGO                                                                                                                                                                                                                                                                              00000000000            01
DATOS   A065R02222    S1778122220000000012492657A308C12821                   000009050000000000000000000000000000000000000000000000000100000000007400400900000002025081800000000000868936543                                                   25081340000000000000000900000  1000PAYWAVE/VISA00000000000000000000000000000000095851                                                                                                                                                                                                              VISA                                                            00000000000            01
DATOS   A065R02222    S1778122220000000012492606A308C12821                   0000028600000000000000000000000000000000000000000000000001000000000072951009000000020250818000000000001583859942                                                  25081340000000000000000900000  1000PAYWAVE/VISA00000000000000000000000000000000254132                                                                                                                                                                                                              VISA                                                            00000000000            01
DATOS   A065R02222    S1778322220000000012515280A308C12823                   000018000000000000000000000000000000000000000000000000000100000000022512800900000002025081800000000000523049710                                                   25081340000000000000000900000  1000PAYWAVE/VISA00000000000000000000000000000000929339                                                                                                                                                                                                              VISA                                                            00000000000            01
DATOS   A065R02222    S1778322220000000012514027A308C12823                   000020007790000000000000000000000000000000000000000000000100000000020554100900000002025090900000000000500441833                                                   25081340000000000000000600000  1Tarjetahabiente0000000000000000000000000000000062SIFZ                                                                                                                                                                                                        MASTERCARD                                                            00000000000            01
DATOS   A065R02222    S1778322220000000012512619A308C12823                   000009564690000000000000000000000000000000000000000000000100000000019504400900000002025081800000000000551218629                                                   25081340000000000000000900000  1000PAYWAVE/VISA00000000000000000000000000000000969579                                                                                                                                                                                                              VISA                                                            00000000000            01
DATOS   A065R02222    S1778322220000000012512258A308C12823                   000002935350000000000000000000000000000000000000000000000100000000019384400900000002025081800000000000579103693                                                   25081340000000000000000900000  1000PAYWAVE/VISA00000000000000000000000000000000633508                                                                                                                                                                                                              VISA                                                            00000000000            01
DATOS   A065R02222    S1778322220000000012511607A308C12823                   000020021960000000000000000000000000000000000000000000000100000000019172500900000002025081800000000000950012544                                                   25081340000000000000000900000  1000PAYWAVE/VISA00000000000000000000000000000000869683                                                                                                                                                                                                              VISA                                                            00000000000            01
DATOS   A065R02222    S1778322220000000012507646A308C12823                   000048029520000000000000000000000000000000000000000000000100000000017074500900000002025090900000000000283809080                                                   25081340000000000000000800000  1000PAYWAVE/VISA00000000000000000000000000000000006687                                                                                                                                                                                                              VISA                                                            00000000000            01
DATOS   A065R02222    S1778322220000000012507534A308C12823                   0000100335200000000000000000000000000000000000000000000001000000000170345009000000020250818000000000001916145505                                                  25081340000000000000000900000  1000PAYWAVE/VISA00000000000000000000000000000000263321                                                                                                                                                                                                              VISA                                                            00000000000            01
DATOS   A065R02222    S1778322220000000012507419A308C12823                   000018000000000000000000000000000000000000000000000000000100000000016585400900000002025081800000000000562148212                                                   25081340000000000000000900000  1000PAYWAVE/VISA00000000000000000000000000000000330656                                                                                                                                                                                                              VISA                                                            00000000000            01
DATOS   A065R02222    S1778322220000000012505888A308C12823                   000010009050000000000000000000000000000000000000000000000100000000015493100900000002025081800000000000729284379                                                   25081340000000000000000900000  1000PAYWAVE/VISA00000000000000000000000000000000323525                                                                                                                                                                                                              VISA                                                            00000000000            01
DATOS   A065R02222    S1778322220000000012505102A308C12823                   000010003900000000000000000000000000000000000000000000000100000000015113000900000002025081800000000000556225249                                                   25081340000000000000000900000  1000PAYWAVE/VISA00000000000000000000000000000000320864                                                                                                                                                                                                              VISA                                                            00000000000            01
TRAILER00000023000011279757800000023
