HEADERA065202508152025081800652
DATOS   A065R02222    S1638122220000000012561097A308C11666                   000185990000000000000000000000000000000000000000000000000100000000013090700900000002025091100000000000492619565                                                   25081540000000000000000800000  1Tarjetahabiente00000000000000000000000000000000698451                                                                                                                                                                                                        MASTERCARD                                                            00000000000            00
DATOS   A065R02222    S1638322220000000012564537A308C11668                   0001559900000000000000000000000000000000000000000000000001000000000163938009000000020250911000000000001940729665                                                  25081540000000000000000800000  1000PAYWAVE/VISA00000000000000000000000000000000007037                                                                                                                                                                                                              VISA                                                            00000000000            01
DATOS   A065R02222    S1638322220000000012563382A308C11668                   000180948000000000000000000000000000000000000000000000000100000000015250800900000002025090100000000000532924940                                                   25081540000000000000000100000  6000PAYWAVE/VISA00000000000000000000000000000000008197                                                                                                                                                                                                              VISA                                                            00000000000            01
DATOS   A065R02222    S1638322220000000012559369A308C11668                   0001309900000000000000000000000000000000000000000000000001000000000115855009000000020250820000000000001116088933                                                  25081540000000000000000900000  1000PAYWAVE/VISA00000000000000000000000000000000642160                                                                                                                                                                                                              VISA                                                            00000000000            01
DATOS   A065R02222    S1638422220000000012565967A308C11669                   0000900000000000000000000000000000000000000000000000000001000000000175127009000000020250820000000000001952813692                                                  25081540000000000000000900000  10PEDRO F. WENNE00000000000000000000000000000000444977                                                                                                                                                                                                              VISA                                                            00000000000            01
DATOS   A065R02222    S1638422220000000012564629A308C11669                   000131990000000000000000000000000000000000000000000000000100000000016442300900000002025090100000000000786603977                                                   25081540000000000000000100000  60RAMIREZ/ALEJAN00000000000000000000000000000000007618                                                                                                                                                                                                              VISA                                                            00000000000            01
DATOS   A065R02222    S1638422220000000012559287A308C11669                   000131000000000000000000000000000000000000000000000000000100000000011562700900000002025091100000000000453863037                                                   25081540000000000000000800000  10RUIZ BROCCARDO00000000000000000000000000000000006976                                                                                                                                                                                                              VISA                                                            00000000000            01
DATOS   A065R02222    S1638422220000000012555800A308C11669                   000149990000000000000000000000000000000000000000000000000100000000009421600900000002025091100000000000668152139                                                   25081540000000000000000800000  10MALLO/OMAR A  00000000000000000000000000000000007018                                                                                                                                                                                                              VISA                                                            00000000000            01
DATOS   A065R02222    S1638722220000000012568400A308C11672                   0001559900000000000000000000000000000000000000000000000001000000000193131009000000020250911000000000001947323908                                                  25081540000000000000000800000  1000PAYWAVE/VISA00000000000000000000000000000000007741                                                                                                                                                                                                              VISA                                                            00000000000            00
DATOS   A065R02222    S1638722220000000012565500A308C11672                   0001499900000000000000000000000000000000000000000000000001000000000172916009000000020250901000000000001674184650                                                  25081540000000000000000100000  60CHIODO/CLAUDIO00000000000000000000000000000000008297                                                                                                                                                                                                              VISA                                                            00000000000            00
DATOS   A065R02222    S1638722220000000012565140A308C11672                   000149990000000000000000000000000000000000000000000000000100000000017113700900000002025090100000000000263385104                                                   25081540000000000000000100000  30YORIO DANIEL R00000000000000000000000000000000628787                                                                                                                                                                                                        MASTERCARD                                                            00000000000            00
DATOS   A065R02222    S1638722220000000012565006A308C11672                   00029699000000000000000000000000000000000000000000000000010000000001704590090000000202509110000000000030009426                                                    25081540000000000000000800000  1000PAYWAVE/VISA00000000000000000000000000000000011825                                                                                                                                                                                                              VISA                                                            00000000000            00
DATOS   A065R02222    S1638722220000000012561799A308C11672                   0001859900000000000000000000000000000000000000000000000001000000000134735009000000020250901000000000002093298628                                                  25081540000000000000000100000  6000PAYWAVE/VISA00000000000000000000000000000000006802                                                                                                                                                                                                              VISA                                                            00000000000            00
DATOS   A065R02222    S1778322220000000012569965A308C12823                   000006500000000000000000000000000000000000000000000000000100000000021000300900000002025082000000000000769578045                                                   25081540000000000000000900000  1000PAYWAVE/VISA00000000000000000000000000000000706482                                                                                                                                                                                                              VISA                                                            00000000000            01
DATOS   A065R02222    S1778322220000000012567993A308C12823                   000040011720000000000000000000000000000000000000000000000100000000019134100900000002025091100000000000167098780                                                   25081540000000000000000800000  1Tarjetahabiente00000000000000000000000000000000621029                                                                                                                                                                                                        MASTERCARD                                                            00000000000            01
DATOS   A065R02222    S1778322220000000012567638A308C12823                   000002600000000000000000000000000000000000000000000000000100000000018590200900000002025082000000000000128490096                                                   25081540000000000000000900000  1000PAYWAVE/VISA00000000000000000000000000000000674843                                                                                                                                                                                                              VISA                                                            00000000000            01
DATOS   A065R02222    S1778322220000000012567613A308C12823                   000006500000000000000000000000000000000000000000000000000100000000018574700900000002025082000000000000878045013                                                   25081540000000000000000900000  1000PAYWAVE/VISA00000000000000000000000000000000674445                                                                                                                                                                                                              VISA                                                            00000000000            01
DATOS   A065R02222    S1778322220000000012565913A308C12823                   000018020320000000000000000000000000000000000000000000000100000000017483700900000002025082000000000000348856647                                                   25081540000000000000000900000  1000PAYWAVE/VISA00000000000000000000000000000000803899                                                                                                                                                                                                              VISA                                                            00000000000            01
DATOS   A065R02222    S1778322220000000012565748A308C12823                   00001004333000000000000000000000000000000000000000000000010000000001740590090000000202508200000000000035292702                                                    25081540000000000000000900000  1000PAYWAVE/VISA00000000000000000000000000000000655295                                                                                                                                                                                                              VISA                                                            00000000000            01
DATOS   A065R02222    S1778322220000000012565517A308C12823                   0000040155600000000000000000000000000000000000000000000001000000000173021009000000020250820000000000002041284448                                                  25081540000000000000000900000  1000PAYWAVE/VISA00000000000000000000000000000000653140                                                                                                                                                                                                              VISA                                                            00000000000            01
DATOS   A065R02222    S1778322220000000012565075A308C12823                   0000200215600000000000000000000000000000000000000000000001000000000170907009000000020250820000000000001621067125                                                  25081540000000000000000900000  1000PAYWAVE/VISA00000000000000000000000000000000378941                                                                                                                                                                                                              VISA                                                            00000000000            01
DATOS   A065R02222    S1778322220000000012564995A308C12823                   00002500634000000000000000000000000000000000000000000000010000000001704320090000000202508200000000000076080724                                                    25081540000000000000000900000  1000PAYWAVE/VISA00000000000000000000000000000000679297                                                                                                                                                                                                              VISA                                                            00000000000            01
DATOS   A065R02222    S1778322220000000012564944A308C12823                   0000020300200000000000000000000000000000000000000000000001000000000170124009000000020250911000000000001959650955                                                  25081540000000000000000600000  1Tarjetahabiente00000000000000000000000000000000W40OVZ                                                                                                                                                                                                        MASTERCARD                                                            00000000000            01
DATOS   A065R02222    S1778322220000000012562494A308C12823                   000004005100000000000000000000000000000000000000000000000100000000014290600900000002025082000000000000902555989                                                   25081540000000000000000900000  1000PAYWAVE/VISA00000000000000000000000000000000635709                                                                                                                                                                                                              VISA                                                            00000000000            01
DATOS   A065R02222    S1778322220000000012561084A308C12823                   000003009710000000000000000000000000000000000000000000000100000000013082700900000002025082000000000000267050286                                                   25081540000000000000000900000  1000PAYWAVE/VISA00000000000000000000000000000000626137                                                                                                                                                                                                              VISA                                                            00000000000            01
DATOS   A065R02222    S1778322220000000012560511A308C12823                   0000400150000000000000000000000000000000000000000000000001000000000124133009000000020250820000000000001063807246                                                  25081540000000000000000900000  10000000000000 /00000000000000000000000000000000683046                                                                                                                                                                                                              VISA                                                            00000000000            01
DATOS   A065R02222    S1778322220000000012559202A308C12823                   0000200006300000000000000000000000000000000000000000000001000000000115330009000000020250820000000000001992530367                                                  25081540000000000000000900000  1000PAYWAVE/VISA00000000000000000000000000000000604892                                                                                                                                                                                                              VISA                                                            00000000000            01
DATOS   A065R02222    S1778322220000000012559010A308C12823                   0000300020000000000000000000000000000000000000000000000001000000000114630009000000020250820000000000001890833936                                                  25081540000000000000000900000  1000PAYWAVE/VISA00000000000000000000000000000000606917                                                                                                                                                                                                              VISA                                                            00000000000            01
DATOS   A065R02222    S1778322220000000012555684A308C12823                   000020000630000000000000000000000000000000000000000000000100000000009353400900000002025091100000000000874332833                                                   25081540000000000000000800000  1000PAYWAVE/VISA00000000000000000000000000000000006559                                                                                                                                                                                                              VISA                                                            00000000000            01
DATOS   A065R02222    S1778322220000000012555523A308C12823                   0000300016600000000000000000000000000000000000000000000001000000000092311009000000020250911000000000001986743103                                                  25081540000000000000000600000  1Tarjetahabiente00000000000000000000000000000000R29QHZ                                                                                                                                                                                                        MASTERCARD                                                            00000000000            01
DATOS   A065R02222    S1778322220000000012555441A308C12823                   0000100049000000000000000000000000000000000000000000000001000000000091642009000000020250820000000000001875019756                                                  25081540000000000000000900000  1000PAYWAVE/VISA00000000000000000000000000000000756855                                                                                                                                                                                                              VISA                                                            00000000000            01
DATOS   A065R02222    S1778322220000000012555417A308C12823                   000030015990000000000000000000000000000000000000000000000100000000009133500900000002025082000000000000540993976                                                   25081540000000000000000900000  1000PAYWAVE/VISA00000000000000000000000000000000571274                                                                                                                                                                                                              VISA                                                            00000000000            01
DATOS   A065R02222    S1778322220000000012555146A308C12823                   0000300016600000000000000000000000000000000000000000000001000000000083839009000000020250911000000000001077607840                                                  25081540000000000000000600000  1Tarjetahabiente00000000000000000000000000000000K4BDMZ                                                                                                                                                                                                        MASTERCARD                                                            00000000000            01
DATOS   A065R02222    S1778322220000000012554918A308C12823                   000020005000000000000000000000000000000000000000000000000100000000007450500900000002025091100000000000986827955                                                   25081540000000000000000600000  1Tarjetahabiente00000000000000000000000000000000TGT0JZ                                                                                                                                                                                                        MASTERCARD                                                            00000000000            01
TRAILER00000034000024676591300000034
