HEADERA065202508192025081900653
DATOS   A065R02222    S1638122220000000012645624A308C11666                   0001179900000000000000000000000000000000000000000000000001000000000105834009000000020250821000000000001983121563                                                  25081940000000000000000900000  1000PAYWAVE/VISA00000000000000000000000000000000695853                                                                                                                                                                                                              VISA                                                            00000000000            00
DATOS   A065R02222    S1638722220000000012654261A308C11672                   0001259900000000000000000000000000000000000000000000000001000000000180744009000000020250912000000000002087296531                                                  25081940000000000000000800000  10LAZZARO/TOMAS 00000000000000000000000000000000007029                                                                                                                                                                                                              VISA                                                            00000000000            00
DATOS   A065R02222    S1638722220000000012651930A308C11672                   000122990000000000000000000000000000000000000000000000000100000000015540000900000002025091200000000000806689737                                                   25081940000000000000000800000  10CLIVAGGIO/FRAN00000000000000000000000000000000010978                                                                                                                                                                                                              VISA                                                            00000000000            00
DATOS   A065R02222    S1638722220000000012650798A308C11672                   000137990000000000000000000000000000000000000000000000000100000000014371900900000002025090200000000000505488856                                                   25081940000000000000000100000  3000PAYWAVE/VISA00000000000000000000000000000000007090                                                                                                                                                                                                              VISA                                                            A065-3C1092CLIENTE-MONTOMAYOR1000            00
DATOS   A065R02222    S1638722220000000012650410A308C11672                   0001379900000000000000000000000000000000000000000000000001000000000141259009000000020250902000000000001577762556                                                  25081940000000000000000100000  3000PAYWAVE/VISA00000000000000000000000000000000013086                                                                                                                                                                                                              VISA                                                            A065-3C1092CLIENTE-MONTOMAYOR1000            00
DATOS   A065R02222    S1638722220000000012650337A308C11672                   000150000000000000000000000000000000000000000000000000000100000000014091500900000002025091200000000000781878927                                                   25081940000000000000000800000  10BUA POMBO/ALEJ00000000000000000000000000000000007734                                                                                                                                                                                                              VISA                                                            00000000000            00
DATOS   A065R02222    S1638722220000000012649823A308C11672                   0001859900000000000000000000000000000000000000000000000001000000000134209009000000020250902000000000001360891979                                                  25081940000000000000000100000  60CAVALLO/GUIDO 00000000000000000000000000000000008857                                                                                                                                                                                                              VISA                                                            A065-6C116CLIENTE-MONTOMAYOR1000            00
DATOS   A065R02222    S1638722220000000012649676A308C11672                   0001559900000000000000000000000000000000000000000000000001000000000133441009000000020250902000000000001489059336                                                  25081940000000000000000100000  60ALEMANNO/ROBER00000000000000000000000000000000006751                                                                                                                                                                                                              VISA                                                            A065-6C116CLIENTE-MONTOMAYOR1000            00
DATOS   A065R02222    S1638722220000000012648998A308C11672                   0001489900000000000000000000000000000000000000000000000001000000000130131009000000020250821000000000001552244388                                                  25081940000000000000000900000  1000PAYWAVE/VISA00000000000000000000000000000000154467                                                                                                                                                                                                              VISA                                                            00000000000            00
DATOS   A065R02222    S1638722220000000012648437A308C11672                   0001489900000000000000000000000000000000000000000000000001000000000123758009000000020250821000000000001827138896                                                  25081940000000000000000900000  10ANGLADA/GUILLE00000000000000000000000000000000642938                                                                                                                                                                                                              VISA                                                            00000000000            00
DATOS   A065R02222    S1638722220000000012648199A308C11672                   000115000000000000000000000000000000000000000000000000000100000000012284600900000002025091200000000000285396474                                                   25081940000000000000000800000  1000PAYWAVE/VISA00000000000000000000000000000000006621                                                                                                                                                                                                              VISA                                                            00000000000            00
DATOS   A065R02222    S1638722220000000012642847A308C11672                   0001499900000000000000000000000000000000000000000000000001000000000084327009000000020250912000000000001463492786                                                  25081940000000000000000800000  10KOREN/LUIS CLA00000000000000000000000000000000006697                                                                                                                                                                                                              VISA                                                            00000000000            00
DATOS   A065R02222    S1778322220000000012655656A308C12823                   000020000000000000000000000000000000000000000000000000000100000000019085700900000002025082100000000000236830404                                                   25081940000000000000000900000  1000PAYWAVE/VISA00000000000000000000000000000000695525                                                                                                                                                                                                              VISA                                                            00000000000            01
DATOS   A065R02222    S1778322220000000012654488A308C12823                   000020030000000000000000000000000000000000000000000000000100000000018191000900000002025082100000000000220492965                                                   25081940000000000000000900000  1000PAYWAVE/VISA00000000000000000000000000000000435672                                                                                                                                                                                                              VISA                                                            00000000000            01
DATOS   A065R02222    S1778322220000000012654004A308C12823                   0000100300000000000000000000000000000000000000000000000001000000000175510009000000020250912000000000001509705598                                                  25081940000000000000000800000  1000PAYWAVE/VISA00000000000000000000000000000000011638                                                                                                                                                                                                              VISA                                                            00000000000            01
DATOS   A065R02222    S1778322220000000012653727A308C12823                   000003004500000000000000000000000000000000000000000000000100000000017415600900000002025082100000000000595067267                                                   25081940000000000000000900000  1000PAYWAVE/VISA00000000000000000000000000000000178013                                                                                                                                                                                                              VISA                                                            00000000000            01
DATOS   A065R02222    S1778322220000000012652984A308C12823                   000015021070000000000000000000000000000000000000000000000100000000017012400900000002025091200000000000585306231                                                   25081940000000000000000600000  1Tarjetahabiente000000000000000000000000000000009AXNFZ                                                                                                                                                                                                        MASTERCARD                                                            00000000000            01
DATOS   A065R02222    S1778322220000000012651608A308C12823                   0000200117200000000000000000000000000000000000000000000001000000000152954009000000020250912000000000001836612227                                                  25081940000000000000000800000  1000PAYWAVE/VISA00000000000000000000000000000000006752                                                                                                                                                                                                              VISA                                                            00000000000            01
DATOS   A065R02222    S1778322220000000012649552A308C12823                   0000250207300000000000000000000000000000000000000000000001000000000132856009000000020250912000000000001989818572                                                  25081940000000000000000600000  1Tarjetahabiente000000000000000000000000000000002PVG3Z                                                                                                                                                                                                        MASTERCARD                                                            00000000000            01
DATOS   A065R02222    S1778322220000000012649005A308C12823                   0000200000000000000000000000000000000000000000000000000001000000000130146009000000020250821000000000001134185932                                                  25081940000000000000000900000  1000PAYWAVE/VISA00000000000000000000000000000000154513                                                                                                                                                                                                              VISA                                                            00000000000            01
DATOS   A065R02222    S1778322220000000012644040A308C12823                   0000400125400000000000000000000000000000000000000000000001000000000095433009000000020250912000000000002075563558                                                  25081940000000000000000800000  1000PAYWAVE/VISA00000000000000000000000000000000006765                                                                                                                                                                                                              VISA                                                            00000000000            01
DATOS   A065R02222    S1778322220000000012642787A308C12823                   000005011880000000000000000000000000000000000000000000000100000000008382000900000002025082100000000000522380067                                                   25081940000000000000000900000  1000PAYWAVE/VISA00000000000000000000000000000000582153                                                                                                                                                                                                              VISA                                                            00000000000            01
TRAILER00000022000018760424400000022
