HEADERA065202508072025080700646
DATOS   A065R02222    S1638122220000000012261160A308C11666                   0000001000000000000000000000000000000000000000000000000001000000000152845009000000020250811000000000001217698426                                                  25080740000000000000000900000  10BERTOLA/SILVAN00000000000000000000000000000000965456                                                                                                                                                                                                        MASTERCARD                                                            00000000000            00
DATOS   A065R02222    S1638422220000000012262329A308C11669                   0001559900000000000000000000000000000000000000000000000001000000000160541009000000020250822000000000002054653728                                                  25080740000000000000000100000  30CARDINALI/CARL00000000000000000000000000000000034455                                                                                                                                                                                                              VISA                                                            00000000000            00
DATOS   A065R02222    S1638422220000000012260565A308C11669                   000155900000000000000000000000000000000000000000000000000100000000015113000900000002025082200000000000766393932                                                   25080740000000000000000100000  60ANDRADE/ADRIAN00000000000000000000000000000000006841                                                                                                                                                                                                              VISA                                                            00000000000            00
DATOS   A065R02222    S1638422220000000012256281A308C11669                   000130990000000000000000000000000000000000000000000000000100000000013181800900000002025081100000000000242953760                                                   25080740000000000000000900000  10BONIFACIO LILI00000000000000000000000000000000439046                                                                                                                                                                                                              VISA                                                            00000000000            00
DATOS   A065R02222    S1638722220000000012266654A308C11672                   000131990000000000000000000000000000000000000000000000000100000000017574400900000002025082200000000000481643801                                                   25080740000000000000000100000  60MAIER/EMA SOFI00000000000000000000000000000000006628                                                                                                                                                                                                              VISA                                                            00000000000            00
DATOS   A065R02222    S1638722220000000012264644A308C11672                   0001379900000000000000000000000000000000000000000000000001000000000171217009000000020250903000000000001293912782                                                  25080740000000000000000800000  10SABBATELLA/PAB00000000000000000000000000000000007768                                                                                                                                                                                                              VISA                                                            00000000000            00
DATOS   A065R02222    S1638722220000000012253390A308C11672                   000155990000000000000000000000000000000000000000000000000100000000012204600900000002025082200000000000260897579                                                   25080740000000000000000100000  60ACOSTA/CARLOS 00000000000000000000000000000000011826                                                                                                                                                                                                              VISA                                                            00000000000            00
DATOS   A065R02222    S1638722220000000012249068A308C11672                   0001259900000000000000000000000000000000000000000000000001000000000110546009000000020250811000000000001984344437                                                  25080740000000000000000900000  10GONZALEZ/OMAR 00000000000000000000000000000000267518                                                                                                                                                                                                              VISA                                                            00000000000            00
DATOS   A065R02222    S1638722220000000012248166A308C11672                   0001499900000000000000000000000000000000000000000000000001000000000105006009000000020250822000000000001377406420                                                  25080740000000000000000100000  60BECERRA JULIO 00000000000000000000000000000000007100                                                                                                                                                                                                        MASTERCARD                                                            00000000000            00
DATOS   A065R02222    S1638722220000000012244103A308C11672                   0001369900000000000000000000000000000000000000000000000001000000000091238009000000020250811000000000001127158807                                                  25080740000000000000000900000  10JUSTO/OLAVARRI00000000000000000000000000000000389511                                                                                                                                                                                                              VISA                                                            00000000000            00
DATOS   A065R02222    S1638722220000000012243940A308C11672                   000170990000000000000000000000000000000000000000000000000100000000009074200900000002025081100000000000204825318                                                   25080740000000000000000900000  10GALLI/DANIEL  00000000000000000000000000000000346209                                                                                                                                                                                                              VISA                                                            00000000000            00
DATOS   A065R02222    S1778322220000000012255454A308C12823                   0000100129100000000000000000000000000000000000000000000001000000000130109009000000020250811000000000001754227367                                                  25080740000000000000000900000  1000PAYWAVE/VISA00000000000000000000000000000000797059                                                                                                                                                                                                              VISA                                                            00000000000            01
DATOS   A065R02222    S1778322220000000012250086A308C12823                   000002871310000000000000000000000000000000000000000000000100000000011241300900000002025081100000000000496742127                                                   25080740000000000000000900000  1000PAYWAVE/VISA00000000000000000000000000000000237078                                                                                                                                                                                                              VISA                                                            00000000000            01
DATOS   A065R02222    S1778322220000000012246370A308C12823                   000010005990000000000000000000000000000000000000000000000100000000010122200900000002025081100000000000114491778                                                   25080740000000000000000900000  1Tarjetahabiente00000000000000000000000000000000418721                                                                                                                                                                                                        MASTERCARD                                                            00000000000            01
DATOS   A065R02222    S1778322220000000012243297A308C12823                   0000104100000000000000000000000000000000000000000000000001000000000084244009000000020250811000000000001883341655                                                  25080740000000000000000900000  1000PAYWAVE/VISA00000000000000000000000000000000387885                                                                                                                                                                                                              VISA                                                            00000000000            01
DATOS   A065R02222    S1778322220000000012242660A308C12823                   000002010000000000000000000000000000000000000000000000000100000000008093000900000002025081100000000000373001253                                                   25080740000000000000000900000  1000PAYWAVE/VISA00000000000000000000000000000000385894                                                                                                                                                                                                              VISA                                                            00000000000            01
DATOS   A065R02222    S1778322220000000012227100A308C12823                   000010001000000000000000000000000000000000000000000000000100000000006581000900000002025081100000000000456739279                                                   25080740000000000000000900000  1000PAYWAVE/VISA00000000000000000000000000000000382875                                                                                                                                                                                                              VISA                                                            00000000000            01
TRAILER00000017000014982212100000017
