HEADERA065202508162025081800652
DATOS   A065R02222    S1636322220000000012573539A308C11649                   000149990000000000000000000000000000000000000000000000000100000000009100500900000002025090100000000000758656480                                                   25081640000000000000000100000  6000PAYWAVE/VISA00000000000000000000000000000000008238                                                                                                                                                                                                              VISA                                                            00000000000            01
DATOS   A065R02222    S1638322220000000012574555A308C11668                   000149990000000000000000000000000000000000000000000000000100000000010220300900000002025090100000000000259823024                                                   25081640000000000000000100000  60FERREYRA/MARIA00000000000000000000000000000000006610                                                                                                                                                                                                              VISA                                                            00000000000            01
DATOS   A065R02222    S1638322220000000012573281A308C11668                   000180000000000000000000000000000000000000000000000000000100000000008223000900000002025082000000000000983963458                                                   25081640000000000000000900000  1000PAYWAVE/VISA00000000000000000000000000000000259645                                                                                                                                                                                                              VISA                                                            00000000000            01
DATOS   A065R02222    S1638722220000000012581644A308C11672                   0002969900000000000000000000000000000000000000000000000001000000000164531009000000020250911000000000001889014153                                                  25081640000000000000000800000  1000PAYWAVE/VISA00000000000000000000000000000000007329                                                                                                                                                                                                              VISA                                                            00000000000            00
DATOS   A065R02222    S1638722220000000012581048A308C11672                   0001769900000000000000000000000000000000000000000000000001000000000160258009000000020250820000000000001917438980                                                  25081640000000000000000900000  1000PAYWAVE/VISA00000000000000000000000000000000037035                                                                                                                                                                                                              VISA                                                            00000000000            00
DATOS   A065R02222    S1638722220000000012580256A308C11672                   0001319900000000000000000000000000000000000000000000000001000000000145951009000000020250901000000000001093972639                                                  25081640000000000000000100000  6000PAYWAVE/VISA00000000000000000000000000000000006630                                                                                                                                                                                                              VISA                                                            00000000000            00
DATOS   A065R02222    S1638722220000000012579919A308C11672                   000137990000000000000000000000000000000000000000000000000100000000014324800900000002025091100000000000417251627                                                   25081640000000000000000800000  1000PAYWAVE/VISA00000000000000000000000000000000006602                                                                                                                                                                                                              VISA                                                            00000000000            00
DATOS   A065R02222    S1638722220000000012578630A308C11672                   0001399900000000000000000000000000000000000000000000000001000000000130232009000000020250901000000000001558461709                                                  25081640000000000000000100000  3000PAYWAVE/VISA00000000000000000000000000000000006791                                                                                                                                                                                                              VISA                                                            00000000000            00
DATOS   A065R02222    S1638722220000000012577512A308C11672                   000290990000000000000000000000000000000000000000000000000100000000012153300900000002025082000000000000931833466                                                   25081640000000000000000900000  1000PAYWAVE/VISA00000000000000000000000000000000561260                                                                                                                                                                                                              VISA                                                            00000000000            00
DATOS   A065R02222    S1638722220000000012576922A308C11672                   0001250000000000000000000000000000000000000000000000000001000000000115349009000000020250820000000000001088912862                                                  25081640000000000000000900000  1000PAYWAVE/VISA00000000000000000000000000000000057450                                                                                                                                                                                                              VISA                                                            00000000000            00
DATOS   A065R02222    S1638722220000000012576779A308C11672                   000171300000000000000000000000000000000000000000000000000100000000011484200900000002025091100000000000187423020                                                   25081640000000000000000800000  10MAROTTA/LUCAS 00000000000000000000000000000000006501                                                                                                                                                                                                              VISA                                                            00000000000            00
DATOS   A065R02222    S1638722220000000012575887A308C11672                   000140000000000000000000000000000000000000000000000000000100000000011191800900000002025082000000000000340818137                                                   25081640000000000000000900000  1000PAYWAVE/VISA00000000000000000000000000000000441127                                                                                                                                                                                                              VISA                                                            00000000000            00
DATOS   A065R02222    S1638722220000000012573972A308C11672                   000130990000000000000000000000000000000000000000000000000100000000009474800900000002025082000000000000343620365                                                   25081640000000000000000900000  10TALLARICO, HUG00000000000000000000000000000000300331                                                                                                                                                                                                              VISA                                                            00000000000            00
DATOS   A065R02222    S1638722220000000012573715A308C11672                   000185990000000000000000000000000000000000000000000000000100000000009265800900000002025090100000000000829937988                                                   25081640000000000000000100000  60MARTINEZ/ELIZA00000000000000000000000000000000008316                                                                                                                                                                                                              VISA                                                            00000000000            00
DATOS   A065R02222    S1638722220000000012573541A308C11672                   000130990000000000000000000000000000000000000000000000000100000000009102600900000002025082000000000000348223201                                                   25081640000000000000000900000  1000PAYWAVE/VISA00000000000000000000000000000000068523                                                                                                                                                                                                              VISA                                                            00000000000            00
DATOS   A065R02222    S1638722220000000012573382A308C11672                   000131990000000000000000000000000000000000000000000000000100000000008482700900000002025090100000000000637168554                                                   25081640000000000000000100000  60DE VEGA/ERNEST00000000000000000000000000000000006660                                                                                                                                                                                                              VISA                                                            00000000000            00
DATOS   A065R02222    S1641622220000000012575671A308C11692                   0001379900000000000000000000000000000000000000000000000001000000000111038009000000020250901000000000001079701205                                                  25081640000000000000000100000  3Tarjetahabiente00000000000000000000000000000000642484                                                                                                                                                                                                        MASTERCARD                                                            00000000000            01
DATOS   A065R02222    S1778322220000000012584549A308C12823                   000064018750000000000000000000000000000000000000000000000100000000019333100900000002025091100000000000277538551                                                   25081640000000000000000800000  1000PAYWAVE/VISA00000000000000000000000000000000008760                                                                                                                                                                                                              VISA                                                            00000000000            01
DATOS   A065R02222    S1778322220000000012583188A308C12823                   0000400274200000000000000000000000000000000000000000000001000000000182024009000000020250820000000000001176934468                                                  25081640000000000000000900000  1000PAYWAVE/VISA00000000000000000000000000000000824736                                                                                                                                                                                                              VISA                                                            00000000000            01
DATOS   A065R02222    S1778322220000000012582373A308C12823                   00001302506000000000000000000000000000000000000000000000010000000001732500090000000202508200000000000071720931                                                    25081640000000000000000900000  1000PAYWAVE/VISA00000000000000000000000000000000089732                                                                                                                                                                                                              VISA                                                            00000000000            01
DATOS   A065R02222    S1778322220000000012582266A308C12823                   000002496000000000000000000000000000000000000000000000000100000000017254500900000002025091100000000000127793559                                                   25081640000000000000000600000  10 /.           00000000000000000000000000000000RMHXRZ                                                                                                                                                                                                        MASTERCARD                                                            00000000000            01
DATOS   A065R02222    S1778322220000000012581484A308C12823                   000020030710000000000000000000000000000000000000000000000100000000016361700900000002025091100000000000791231174                                                   25081640000000000000000800000  1000PAYWAVE/VISA00000000000000000000000000000000010296                                                                                                                                                                                                              VISA                                                            00000000000            01
DATOS   A065R02222    S1778322220000000012581033A308C12823                   0000100153600000000000000000000000000000000000000000000001000000000160209009000000020250911000000000001812717090                                                  25081640000000000000000800000  1000PAYWAVE/VISA00000000000000000000000000000000012915                                                                                                                                                                                                              VISA                                                            00000000000            01
DATOS   A065R02222    S1778322220000000012580430A308C12823                   0000200008200000000000000000000000000000000000000000000001000000000151345009000000020250911000000000001434722021                                                  25081640000000000000000800000  1000PAYWAVE/VISA00000000000000000000000000000000006917                                                                                                                                                                                                              VISA                                                            00000000000            01
DATOS   A065R02222    S1778322220000000012579084A308C12823                   000015000000000000000000000000000000000000000000000000000100000000013293500900000002025091100000000000520636388                                                   25081640000000000000000800000  1000PAYWAVE/VISA00000000000000000000000000000000006944                                                                                                                                                                                                              VISA                                                            00000000000            01
DATOS   A065R02222    S1778322220000000012578884A308C12823                   0000080000000000000000000000000000000000000000000000000001000000000131626009000000020250820000000000001234913605                                                  25081640000000000000000900000  1000PAYWAVE/VISA00000000000000000000000000000000350401                                                                                                                                                                                                              VISA                                                            00000000000            01
DATOS   A065R02222    S1778322220000000012575661A308C12823                   0000050000000000000000000000000000000000000000000000000001000000000111037009000000020250820000000000001588033009                                                  25081640000000000000000900000  1000PAYWAVE/VISA00000000000000000000000000000000087477                                                                                                                                                                                                              VISA                                                            00000000000            01
DATOS   A065R02222    S1778322220000000012575598A308C12823                   0000120061300000000000000000000000000000000000000000000001000000000110821009000000020250820000000000001345289783                                                  25081640000000000000000900000  1000PAYWAVE/VISA00000000000000000000000000000000870437                                                                                                                                                                                                              VISA                                                            00000000000            01
DATOS   A065R02222    S1778322220000000012575506A308C12823                   000074998900000000000000000000000000000000000000000000000100000000011044100900000002025091100000000000563399759                                                   25081640000000000000000600000  1Tarjetahabiente00000000000000000000000000000000293422                                                                                                                                                                                                        MASTERCARD                                                            00000000000            01
DATOS   A065R02222    S1778322220000000012574927A308C12823                   0000200137100000000000000000000000000000000000000000000001000000000103920009000000020250820000000000001154267520                                                  25081640000000000000000900000  1000PAYWAVE/VISA00000000000000000000000000000000737164                                                                                                                                                                                                              VISA                                                            00000000000            01
DATOS   A065R02222    S1778322220000000012574778A308C12823                   0000200006300000000000000000000000000000000000000000000001000000000103318009000000020250911000000000002118736194                                                  25081640000000000000000600000  1Tarjetahabiente000000000000000000000000000000007W51GZ                                                                                                                                                                                                        MASTERCARD                                                            00000000000            01
DATOS   A065R02222    S1778322220000000012574299A308C12823                   000040000000000000000000000000000000000000000000000000000100000000010091000900000002025091100000000000526231525                                                   25081640000000000000000800000  1000PAYWAVE/VISA00000000000000000000000000000000008510                                                                                                                                                                                                              VISA                                                            00000000000            01
DATOS   A065R02222    S1778322220000000012573908A308C12823                   0000060101000000000000000000000000000000000000000000000001000000000094409009000000020250820000000000001619102748                                                  25081640000000000000000900000  1000PAYWAVE/VISA00000000000000000000000000000000147833                                                                                                                                                                                                              VISA                                                            00000000000            01
DATOS   A065R02222    S1778322220000000012573263A308C12823                   0000400000000000000000000000000000000000000000000000000001000000000081826009000000020250911000000000001424599909                                                  25081640000000000000000800000  1000PAYWAVE/VISA00000000000000000000000000000000006507                                                                                                                                                                                                              VISA                                                            00000000000            01
DATOS   A065R02222    S1778322220000000012573121A308C12823                   000015000000000000000000000000000000000000000000000000000100000000006473300900000002025082000000000000466736782                                                   25081640000000000000000900000  1000PAYWAVE/VISA00000000000000000000000000000000719314                                                                                                                                                                                                              VISA                                                            00000000000            01
DATOS   A065R02222    S1778322220000000012573082A308C12823                   0000035302900000000000000000000000000000000000000000000001000000000054510009000000020250911000000000001056894758                                                  25081640000000000000000600000  1Tarjetahabiente00000000000000000000000000000000UVFTZZ                                                                                                                                                                                                        MASTERCARD                                                            00000000000            01
DATOS   A065R02222    S1778322220000000012572866A308C12823                   000043616570000000000000000000000000000000000000000000000100000000003353200900000002025091100000000000333242837                                                   25081640000000000000000600000  1Tarjetahabiente000000000000000000000000000000005OG5TZ                                                                                                                                                                                                        MASTERCARD                                                            00000000000            01
TRAILER00000037000032819604500000037
