HEADERA065202508062025080600645
DATOS   A065R02222    S1638722220000000012207696A308C11672                   00012500000000000000000000000000000000000000000000000000010000000001423220090000000202508080000000000051938984                                                    25080640000000000000000900000  1000PAYWAVE/VISA00000000000000000000000000000000294459                                                                                                                                                                                                              VISA                                                            00000000000            00
DATOS   A065R02222    S1638722220000000012205228A308C11672                   0001319900000000000000000000000000000000000000000000000001000000000131445009000000020250902000000000001677722074                                                  25080640000000000000000800000  10GARCIA TOMAS E00000000000000000000000000000000659109                                                                                                                                                                                                        MASTERCARD                                                            00000000000            00
DATOS   A065R02222    S1638722220000000012203880A308C11672                   000130990000000000000000000000000000000000000000000000000100000000012430700900000002025080800000000000131779133                                                   25080640000000000000000900000  10GERARDI/PEDRO 00000000000000000000000000000000745047                                                                                                                                                                                                              VISA                                                            00000000000            00
DATOS   A065R02222    S1638722220000000012201891A308C11672                   000155990000000000000000000000000000000000000000000000000100000000012010600900000002025082100000000000485207908                                                   25080640000000000000000100000  60LOPEZ/ESTEBAN 00000000000000000000000000000000009382                                                                                                                                                                                                              VISA                                                            00000000000            00
DATOS   A065R02222    S1638722220000000012200452A308C11672                   0001249900000000000000000000000000000000000000000000000001000000000113326009000000020250821000000000001147616130                                                  25080640000000000000000100000  30PARABOSCHI/MAR00000000000000000000000000000000010655                                                                                                                                                                                                              VISA                                                            00000000000            00
DATOS   A065R02222    S1638722220000000012199653A308C11672                   000125990000000000000000000000000000000000000000000000000100000000011173200900000002025090200000000000150412543                                                   25080640000000000000000800000  10BELMONTE/MARIA00000000000000000000000000000000006465                                                                                                                                                                                                              VISA                                                            00000000000            00
DATOS   A065R02222    S1638722220000000012195032A308C11672                   000149900000000000000000000000000000000000000000000000000100000000009233000900000002025082100000000000295862679                                                   25080640000000000000000100000  60KALPOKAS/ALEJA00000000000000000000000000000000006112                                                                                                                                                                                                              VISA                                                            00000000000            00
DATOS   A065R02222    S1638722220000000012194182A308C11672                   000137990000000000000000000000000000000000000000000000000100000000008531300900000002025090200000000000546190210                                                   25080640000000000000000800000  10BIAGINI/MARIAN00000000000000000000000000000000006782                                                                                                                                                                                                              VISA                                                            00000000000            00
DATOS   A065R02222    S1778322220000000012222319A308C12823                   0000100059900000000000000000000000000000000000000000000001000000000204036009000000020250808000000000001409168291                                                  25080640000000000000000900000  10            / 00000000000000000000000000000000649932                                                                                                                                                                                                              VISA                                                            00000000000            01
DATOS   A065R02222    S1778322220000000012220979A308C12823                   000030023180000000000000000000000000000000000000000000000100000000019591800900000002025080800000000000374161017                                                   25080640000000000000000900000  10TOLOZA SEBASTI00000000000000000000000000000000355478                                                                                                                                                                                                              VISA                                                            00000000000            01
DATOS   A065R02222    S1778322220000000012219929A308C12823                   000010025510000000000000000000000000000000000000000000000100000000019331600900000002025080800000000000911434850                                                   25080640000000000000000900000  10CASSINI ANDRES00000000000000000000000000000000347625                                                                                                                                                                                                              VISA                                                            00000000000            01
DATOS   A065R02222    S1778322220000000012213738A308C12823                   0000080115600000000000000000000000000000000000000000000001000000000172454009000000020250902000000000001477969786                                                  25080640000000000000000800000  10GOMEZ/OSCAR DA00000000000000000000000000000000006494                                                                                                                                                                                                              VISA                                                            00000000000            01
DATOS   A065R02222    S1778322220000000012212191A308C12823                   000015018740000000000000000000000000000000000000000000000100000000016451300900000002025080800000000000858190982                                                   25080640000000000000000900000  10POSADAS CARLOS00000000000000000000000000000000305605                                                                                                                                                                                                              VISA                                                            00000000000            01
DATOS   A065R02222    S1778322220000000012206294A308C12823                   000030016000000000000000000000000000000000000000000000000100000000013422200900000002025080800000000000812870123                                                   25080640000000000000000900000  1000PAYWAVE/VISA00000000000000000000000000000000505073                                                                                                                                                                                                              VISA                                                            00000000000            01
DATOS   A065R02222    S1778322220000000012205824A308C12823                   0000144033700000000000000000000000000000000000000000000001000000000132934009000000020250808000000000001725569120                                                  25080640000000000000000900000  1000PAYWAVE/VISA00000000000000000000000000000000289433                                                                                                                                                                                                              VISA                                                            00000000000            01
DATOS   A065R02222    S1778322220000000012204363A308C12823                   0000200275900000000000000000000000000000000000000000000001000000000125455009000000020250808000000000001863056522                                                  25080640000000000000000900000  1000PAYWAVE/VISA00000000000000000000000000000000283905                                                                                                                                                                                                              VISA                                                            00000000000            01
DATOS   A065R02222    S1778322220000000012200610A308C12823                   0000013250000000000000000000000000000000000000000000000001000000000113704009000000020250808000000000001089540901                                                  25080640000000000000000900000  1000PAYWAVE/VISA00000000000000000000000000000000198563                                                                                                                                                                                                              VISA                                                            00000000000            01
DATOS   A065R02222    S1778322220000000012198431A308C12823                   0000050231600000000000000000000000000000000000000000000001000000000105157009000000020250808000000000001649523214                                                  25080640000000000000000900000  1000PAYWAVE/VISA00000000000000000000000000000000973876                                                                                                                                                                                                              VISA                                                            00000000000            01
DATOS   A065R02222    S1778322220000000012197963A308C12823                   000019997670000000000000000000000000000000000000000000000100000000010423400900000002025080800000000000328040546                                                   25080640000000000000000900000  1000PAYWAVE/VISA00000000000000000000000000000000288767                                                                                                                                                                                                              VISA                                                            00000000000            01
DATOS   A065R02222    S1778322220000000012196181A322C12823                   0000060000000000000000000000000000000000000000000000000009000000000095827008000000020250806000000000009OC3454383C681E9B00002285187000008605184ET9A065TOC5CFB00C83A25080690000000000000000200000  100002740743348900000000000000007L8GYKNXW8MZJ7QX2MPRZ5                                                                                                                                                                                                                                                                              00000000000            01
DATOS   A065R02222    S1778322220000000012193902A308C12823                   00001500900000000000000000000000000000000000000000000000010000000000839520090000000202508080000000000032168230                                                    25080640000000000000000900000  1000PAYWAVE/VISA00000000000000000000000000000000580822                                                                                                                                                                                                              VISA                                                            00000000000            01
DATOS   A065R02222    S1778322220000000012193443A308C12823                   0000299989800000000000000000000000000000000000000000000001000000000081457009000000020250808000000000001927568357                                                  25080640000000000000000900000  1000PAYWAVE/VISA00000000000000000000000000000000028554                                                                                                                                                                                                              VISA                                                            00000000000            01
DATOS   A065R02222    S1778322220000000012193069A308C12823                   00005801800000000000000000000000000000000000000000000000010000000000742350090000000202509020000000000025268398                                                    25080640000000000000000800000  1000PAYWAVE/VISA00000000000000000000000000000000006143                                                                                                                                                                                                              VISA                                                            00000000000            01
DATOS   A065R02222    S1778322220000000012192854A308C12823                   000010020300000000000000000000000000000000000000000000000100000000007123200900000002025080800000000000884360337                                                   25080640000000000000000900000  1000PAYWAVE/VISA00000000000000000000000000000000231183                                                                                                                                                                                                              VISA                                                            00000000000            01
DATOS   A065R02222    S1778322220000000012175788A308C12823                   000015029150000000000000000000000000000000000000000000000100000000006390700900000002025090200000000000334750939                                                   25080640000000000000000800000  10FISCHER/JONATA00000000000000000000000000000000006858                                                                                                                                                                                                              VISA                                                            00000000000            01
TRAILER00000025000013807932000000025
