HEADERA065202508112025081100648
DATOS   A065R02222    S1638122220000000012405797A308C11666                   0001499900000000000000000000000000000000000000000000000001000000000151826009000000020250826000000000001948338327                                                  25081140000000000000000100000  3000PAYWAVE/VISA00000000000000000000000000000000007024                                                                                                                                                                                                              VISA                                                            00000000000            00
DATOS   A065R02222    S1638122220000000012403825A308C11666                   0001770000000000000000000000000000000000000000000000000001000000000141403009000000020250813000000000001929074800                                                  25081140000000000000000900000  1000PAYWAVE/VISA00000000000000000000000000000000017497                                                                                                                                                                                                              VISA                                                            00000000000            00
DATOS   A065R02222    S1638122220000000012394411A308C11666                   0000001000000000000000000000000000000000000000000000000001000000000105447009000000020250826000000000001554669719                                                  25081140000000000000000100000  3000PAYWAVE/VISA00000000000000000000000000000000015400                                                                                                                                                                                                              VISA                                                            00000000000            00
DATOS   A065R02222    S1638322220000000012399950A308C11668                   0001309900000000000000000000000000000000000000000000000001000000000123505009000000020250905000000000001406642990                                                  25081140000000000000000800000  10DARIO MANSILLA00000000000000000000000000000000603410                                                                                                                                                                                                              VISA                                                            00000000000            01
DATOS   A065R02222    S1638322220000000012397142A322C11668                   0001309900000000000000000000000000000000000000000001300015000000000114201008000000020250811000000000009OC0317CA4D44B29B00001894804000008717086ET9A065TOCB173818A0025081190000000000000000200000  10000272423739310000000000000000WGRXJE27GKMJPWR6N7MYQL                                                                                                                                                                                                                                                                              00000000000            01
DATOS   A065R02222    S1638322220000000012390563A308C11668                   0001460900000000000000000000000000000000000000000000000001000000000092950009000000020250905000000000001059801886                                                  25081140000000000000000800000  1000PAYWAVE/VISA00000000000000000000000000000000006153                                                                                                                                                                                                              VISA                                                            00000000000            01
DATOS   A065R02222    S1638422220000000012399390A308C11669                   000134990000000000000000000000000000000000000000000000000100000000012235600900000002025082600000000000312656679                                                   25081140000000000000000100000  60GARCIA/LORENZO00000000000000000000000000000000016735                                                                                                                                                                                                              VISA                                                            00000000000            01
DATOS   A065R02222    S1638422220000000012398612A308C11669                   00011800000000000000000000000000000000000000000000000000010000000001208350090000000202508130000000000093658046                                                    25081140000000000000000900000  10LEIS/ANDRES FE00000000000000000000000000000000491226                                                                                                                                                                                                              VISA                                                            00000000000            01
DATOS   A065R02222    S1638422220000000012389579A308C11669                   000185990000000000000000000000000000000000000000000000000100000000008474700900000002025082600000000000506286647                                                   25081140000000000000000100000  60BRAVO/HERNAN A00000000000000000000000000000000006139                                                                                                                                                                                                              VISA                                                            00000000000            01
DATOS   A065R02222    S1638722220000000012413019A308C11672                   0001369900000000000000000000000000000000000000000000000001000000000183812009000000020250905000000000001761807703                                                  25081140000000000000000800000  1Tarjetahabiente00000000000000000000000000000000622806                                                                                                                                                                                                        MASTERCARD                                                            00000000000            00
DATOS   A065R02222    S1638722220000000012411166A308C11672                   000137990000000000000000000000000000000000000000000000000100000000017575500900000002025082600000000000912225579                                                   25081140000000000000000100000  60CARUSO FERNAND00000000000000000000000000000000679062                                                                                                                                                                                                        MASTERCARD                                                            00000000000            00
DATOS   A065R02222    S1638722220000000012408083A308C11672                   0001249900000000000000000000000000000000000000000000000001000000000163850009000000020250826000000000001095985278                                                  25081140000000000000000100000  6000PAYWAVE/VISA00000000000000000000000000000000006589                                                                                                                                                                                                              VISA                                                            00000000000            00
DATOS   A065R02222    S1638722220000000012407024A308C11672                   0001309900000000000000000000000000000000000000000000000001000000000160221009000000020250813000000000001816233429                                                  25081140000000000000000900000  1000PAYWAVE/VISA00000000000000000000000000000000024926                                                                                                                                                                                                              VISA                                                            00000000000            00
DATOS   A065R02222    S1638722220000000012404051A308C11672                   0001249900000000000000000000000000000000000000000000000001000000000142037009000000020250905000000000001846111713                                                  25081140000000000000000800000  10OSCAR ALBERTO 00000000000000000000000000000000665835                                                                                                                                                                                                        MASTERCARD                                                            00000000000            00
DATOS   A065R02222    S1638722220000000012395988A308C11672                   0001319900000000000000000000000000000000000000000000000001000000000112203009000000020250826000000000002092051654                                                  25081140000000000000000100000  60GOMEZ/CELESTE 00000000000000000000000000000000010121                                                                                                                                                                                                              VISA                                                            00000000000            00
DATOS   A065R02222    S1638722220000000012391056A308C11672                   0001429900000000000000000000000000000000000000000000000001000000000094241009000000020250813000000000001712695626                                                  25081140000000000000000900000  1Tarjetahabiente00000000000000000000000000000000204990                                                                                                                                                                                                        MASTERCARD                                                            00000000000            00
DATOS   A065R02222    S1638722220000000012390026A308C11672                   000131990000000000000000000000000000000000000000000000000100000000009084000900000002025090500000000000592671424                                                   25081140000000000000000800000  10DOBAL MARCELO 00000000000000000000000000000000689313                                                                                                                                                                                                        MASTERCARD                                                            00000000000            00
DATOS   A065R02222    S1778122220000000012411529A308C12821                   000007480000000000000000000000000000000000000000000000000100000000018061900900000002025081300000000000468790474                                                   25081140000000000000000900000  1000PAYWAVE/VISA00000000000000000000000000000000045130                                                                                                                                                                                                              VISA                                                            00000000000            01
DATOS   A065R02222    S1778122220000000012408045A308C12821                   0000197000000000000000000000000000000000000000000000000001000000000163738009000000020250905000000000002067410704                                                  25081140000000000000000800000  10BELLANI R/ALFI00000000000000000000000000000000006821                                                                                                                                                                                                              VISA                                                            00000000000            01
DATOS   A065R02222    S1778122220000000012401919A308C12821                   000020200000000000000000000000000000000000000000000000000100000000013212100900000002025081300000000000350990753                                                   25081140000000000000000900000  1000PAYWAVE/VISA00000000000000000000000000000000012218                                                                                                                                                                                                              VISA                                                            00000000000            01
DATOS   A065R02222    S1778122220000000012396463A308C12821                   0000039000000000000000000000000000000000000000000000000001000000000113022009000000020250905000000000001444500067                                                  25081140000000000000000800000  1Tarjetahabiente00000000000000000000000000000000106719                                                                                                                                                                                                        MASTERCARD                                                            00000000000            01
DATOS   A065R02222    S1778122220000000012396379A308C12821                   0000039000000000000000000000000000000000000000000000000001000000000112824009000000020250905000000000001378960902                                                  25081140000000000000000800000  10THOMASSET ALBE00000000000000000000000000000000283559                                                                                                                                                                                                              VISA                                                            00000000000            01
DATOS   A065R02222    S1778122220000000012395288A308C12821                   000002230000000000000000000000000000000000000000000000000100000000011102800900000002025081300000000000600514714                                                   25081140000000000000000900000  1000PAYWAVE/VISA00000000000000000000000000000000744935                                                                                                                                                                                                              VISA                                                            00000000000            01
DATOS   A065R02222    S1778122220000000012393676A308C12821                   0000085500000000000000000000000000000000000000000000000001000000000104046009000000020250813000000000001522342257                                                  25081140000000000000000900000  1000PAYWAVE/VISA00000000000000000000000000000000109823                                                                                                                                                                                                              VISA                                                            00000000000            01
TRAILER00000024000023030200000000024
