HEADERA065202508172025081800652
DATOS   A065R02222    S1778322220000000012594060A308C12823                   0000050289900000000000000000000000000000000000000000000001000000000222647009000000020250820000000000001189242019                                                  25081740000000000000000900000  1000PAYWAVE/VISA00000000000000000000000000000000563974                                                                                                                                                                                                              VISA                                                            00000000000            01
DATOS   A065R02222    S1778322220000000012592978A308C12823                   0000030200000000000000000000000000000000000000000000000001000000000195703009000000020250820000000000001463063080                                                  25081740000000000000000900000  1000PAYWAVE/VISA00000000000000000000000000000000579387                                                                                                                                                                                                              VISA                                                            00000000000            01
DATOS   A065R02222    S1778322220000000012592576A308C12823                   0000150106100000000000000000000000000000000000000000000001000000000191314009000000020250820000000000001232692001                                                  25081740000000000000000900000  1000PAYWAVE/VISA00000000000000000000000000000000846475                                                                                                                                                                                                              VISA                                                            00000000000            01
DATOS   A065R02222    S1778322220000000012592552A308C12823                   000030006830000000000000000000000000000000000000000000000100000000019100500900000002025091100000000000775138395                                                   25081740000000000000000800000  1000PAYWAVE/VISA00000000000000000000000000000000009356                                                                                                                                                                                                              VISA                                                            00000000000            01
DATOS   A065R02222    S1778322220000000012592128A308C12823                   0000580084900000000000000000000000000000000000000000000001000000000181658009000000020250820000000000001872667541                                                  25081740000000000000000900000  1000PAYWAVE/VISA00000000000000000000000000000000950165                                                                                                                                                                                                              VISA                                                            00000000000            01
DATOS   A065R02222    S1778322220000000012591659A308C12823                   000019006550000000000000000000000000000000000000000000000100000000017102000900000002025091100000000000318667139                                                   25081740000000000000000800000  1Tarjetahabiente00000000000000000000000000000000398706                                                                                                                                                                                                        MASTERCARD                                                            00000000000            01
DATOS   A065R02222    S1778322220000000012591182A308C12823                   000043508100000000000000000000000000000000000000000000000100000000015593400900000002025091100000000000973639712                                                   25081740000000000000000800000  1000PAYWAVE/VISA00000000000000000000000000000000007523                                                                                                                                                                                                              VISA                                                            00000000000            01
DATOS   A065R02222    S1778322220000000012590252A308C12823                   0000033759500000000000000000000000000000000000000000000001000000000132540009000000020250911000000000001131859033                                                  25081740000000000000000600000  10 /.           00000000000000000000000000000000CAC2DZ                                                                                                                                                                                                        MASTERCARD                                                            00000000000            01
DATOS   A065R02222    S1778322220000000012590244A308C12823                   0001180231800000000000000000000000000000000000000000000001000000000132433009000000020250820000000000002031381812                                                  25081740000000000000000900000  1000PAYWAVE/VISA00000000000000000000000000000000615331                                                                                                                                                                                                              VISA                                                            00000000000            01
DATOS   A065R02222    S1778322220000000012590160A308C12823                   0000150106100000000000000000000000000000000000000000000001000000000131136009000000020250911000000000001224597095                                                  25081740000000000000000800000  1000PAYWAVE/VISA00000000000000000000000000000000006882                                                                                                                                                                                                              VISA                                                            00000000000            01
DATOS   A065R02222    S1778322220000000012590019A308C12823                   0000040351800000000000000000000000000000000000000000000001000000000124903009000000020250820000000000001878231469                                                  25081740000000000000000900000  1000PAYWAVE/VISA00000000000000000000000000000000196882                                                                                                                                                                                                              VISA                                                            00000000000            01
DATOS   A065R02222    S1778322220000000012589960A308C12823                   0000050000000000000000000000000000000000000000000000000001000000000124243009000000020250820000000000001115209996                                                  25081740000000000000000900000  1000PAYWAVE/VISA00000000000000000000000000000000538049                                                                                                                                                                                                              VISA                                                            00000000000            01
DATOS   A065R02222    S1778322220000000012589014A308C12823                   000010015360000000000000000000000000000000000000000000000100000000010200300900000002025082000000000000864088421                                                   25081740000000000000000900000  1000PAYWAVE/VISA00000000000000000000000000000000889235                                                                                                                                                                                                              VISA                                                            00000000000            01
DATOS   A065R02222    S1778322220000000012588997A308C12823                   0000390215600000000000000000000000000000000000000000000001000000000101653009000000020250911000000000001513584998                                                  25081740000000000000000600000  1Tarjetahabiente00000000000000000000000000000000628710                                                                                                                                                                                                        MASTERCARD                                                            00000000000            01
DATOS   A065R02222    S1778322220000000012588741A308C12823                   0000100153600000000000000000000000000000000000000000000001000000000084548009000000020250820000000000001795942624                                                  25081740000000000000000900000  1000PAYWAVE/VISA00000000000000000000000000000000492011                                                                                                                                                                                                              VISA                                                            00000000000            01
TRAILER00000015000003780867700000015
